{
  "_format": "hh-sol-artifact-1",
  "contractName": "AgriChainFinance",
  "sourceName": "contracts/AgriChainFinance.sol",
  "abi": [
    {
      "inputs": [
        {
          "internalType": "address",
          "name": "_harvestNFTContract",
          "type": "address"
        }
      ],
      "stateMutability": "nonpayable",
      "type": "constructor"
    },
    {
      "inputs": [
        {
          "internalType": "address",
          "name": "owner",
          "type": "address"
        }
      ],
      "name": "OwnableInvalidOwner",
      "type": "error"
    },
    {
      "inputs": [
        {
          "internalType": "address",
          "name": "account",
          "type": "address"
        }
      ],
      "name": "OwnableUnauthorizedAccount",
      "type": "error"
    },
    {
      "inputs": [],
      "name": "ReentrancyGuardReentrantCall",
      "type": "error"
    },
    {
      "anonymous": false,
      "inputs": [
        {
          "indexed": true,
          "internalType": "uint256",
          "name": "tokenId",
          "type": "uint256"
        },
        {
          "indexed": true,
          "internalType": "address",
          "name": "farmer",
          "type": "address"
        },
        {
          "indexed": false,
          "internalType": "string",
          "name": "cropType",
          "type": "string"
        }
      ],
      "name": "HarvestTokenCreated",
      "type": "event"
    },
    {
      "anonymous": false,
      "inputs": [
        {
          "indexed": true,
          "internalType": "uint256",
          "name": "loanId",
          "type": "uint256"
        },
        {
          "indexed": true,
          "internalType": "address",
          "name": "investor",
          "type": "address"
        },
        {
          "indexed": false,
          "internalType": "uint256",
          "name": "amount",
          "type": "uint256"
        }
      ],
      "name": "InvestmentWithdrawn",
      "type": "event"
    },
    {
      "anonymous": false,
      "inputs": [
        {
          "indexed": true,
          "internalType": "uint256",
          "name": "loanId",
          "type": "uint256"
        },
        {
          "indexed": true,
          "internalType": "address",
          "name": "investor",
          "type": "address"
        },
        {
          "indexed": false,
          "internalType": "uint256",
          "name": "amount",
          "type": "uint256"
        }
      ],
      "name": "LoanFunded",
      "type": "event"
    },
    {
      "anonymous": false,
      "inputs": [
        {
          "indexed": true,
          "internalType": "uint256",
          "name": "loanId",
          "type": "uint256"
        },
        {
          "indexed": false,
          "internalType": "uint256",
          "name": "amount",
          "type": "uint256"
        }
      ],
      "name": "LoanRepaid",
      "type": "event"
    },
    {
      "anonymous": false,
      "inputs": [
        {
          "indexed": true,
          "internalType": "uint256",
          "name": "loanId",
          "type": "uint256"
        },
        {
          "indexed": true,
          "internalType": "address",
          "name": "farmer",
          "type": "address"
        },
        {
          "indexed": false,
          "internalType": "uint256",
          "name": "amount",
          "type": "uint256"
        }
      ],
      "name": "LoanRequested",
      "type": "event"
    },
    {
      "anonymous": false,
      "inputs": [
        {
          "indexed": true,
          "internalType": "address",
          "name": "previousOwner",
          "type": "address"
        },
        {
          "indexed": true,
          "internalType": "address",
          "name": "newOwner",
          "type": "address"
        }
      ],
      "name": "OwnershipTransferred",
      "type": "event"
    },
    {
      "inputs": [
        {
          "internalType": "address",
          "name": "_tokenAddress",
          "type": "address"
        },
        {
          "internalType": "string",
          "name": "_cropType",
          "type": "string"
        },
        {
          "internalType": "uint256",
          "name": "_expectedYield",
          "type": "uint256"
        },
        {
          "internalType": "uint256",
          "name": "_estimatedValue",
          "type": "uint256"
        },
        {
          "internalType": "uint256",
          "name": "_harvestDate",
          "type": "uint256"
        }
      ],
      "name": "createHarvestToken",
      "outputs": [
        {
          "internalType": "uint256",
          "name": "",
          "type": "uint256"
        }
      ],
      "stateMutability": "nonpayable",
      "type": "function"
    },
    {
      "inputs": [
        {
          "internalType": "uint256",
          "name": "_htsInternalId",
          "type": "uint256"
        }
      ],
      "name": "createHarvestTokenFromNFT",
      "outputs": [
        {
          "internalType": "uint256",
          "name": "",
          "type": "uint256"
        }
      ],
      "stateMutability": "nonpayable",
      "type": "function"
    },
    {
      "inputs": [],
      "name": "emergencyWithdraw",
      "outputs": [],
      "stateMutability": "nonpayable",
      "type": "function"
    },
    {
      "inputs": [
        {
          "internalType": "address",
          "name": "",
          "type": "address"
        },
        {
          "internalType": "uint256",
          "name": "",
          "type": "uint256"
        }
      ],
      "name": "farmerLoans",
      "outputs": [
        {
          "internalType": "uint256",
          "name": "",
          "type": "uint256"
        }
      ],
      "stateMutability": "view",
      "type": "function"
    },
    {
      "inputs": [
        {
          "internalType": "address",
          "name": "",
          "type": "address"
        }
      ],
      "name": "farmerVerifications",
      "outputs": [
        {
          "internalType": "uint8",
          "name": "level",
          "type": "uint8"
        },
        {
          "internalType": "bytes32",
          "name": "documentHash",
          "type": "bytes32"
        },
        {
          "internalType": "uint256",
          "name": "verifiedAt",
          "type": "uint256"
        },
        {
          "internalType": "address",
          "name": "verifier",
          "type": "address"
        },
        {
          "internalType": "bool",
          "name": "isActive",
          "type": "bool"
        }
      ],
      "stateMutability": "view",
      "type": "function"
    },
    {
      "inputs": [],
      "name": "getContractBalanceWei",
      "outputs": [
        {
          "internalType": "uint256",
          "name": "",
          "type": "uint256"
        }
      ],
      "stateMutability": "view",
      "type": "function"
    },
    {
      "inputs": [
        {
          "internalType": "address",
          "name": "_farmer",
          "type": "address"
        }
      ],
      "name": "getFarmerLoans",
      "outputs": [
        {
          "internalType": "uint256[]",
          "name": "",
          "type": "uint256[]"
        }
      ],
      "stateMutability": "view",
      "type": "function"
    },
    {
      "inputs": [
        {
          "internalType": "address",
          "name": "_investor",
          "type": "address"
        }
      ],
      "name": "getInvestorInvestments",
      "outputs": [
        {
          "internalType": "uint256[]",
          "name": "",
          "type": "uint256[]"
        }
      ],
      "stateMutability": "view",
      "type": "function"
    },
    {
      "inputs": [
        {
          "internalType": "uint256",
          "name": "_loanId",
          "type": "uint256"
        }
      ],
      "name": "getLoanDetails",
      "outputs": [
        {
          "components": [
            {
              "internalType": "uint256",
              "name": "id",
              "type": "uint256"
            },
            {
              "internalType": "address",
              "name": "farmer",
              "type": "address"
            },
            {
              "internalType": "uint256",
              "name": "harvestTokenId",
              "type": "uint256"
            },
            {
              "internalType": "uint256",
              "name": "requestedAmount",
              "type": "uint256"
            },
            {
              "internalType": "uint256",
              "name": "interestRate",
              "type": "uint256"
            },
            {
              "internalType": "uint256",
              "name": "duration",
              "type": "uint256"
            },
            {
              "internalType": "uint256",
              "name": "collateralValue",
              "type": "uint256"
            },
            {
              "internalType": "enum AgriChainFinance.LoanStatus",
              "name": "status",
              "type": "uint8"
            },
            {
              "internalType": "uint256",
              "name": "fundedAmount",
              "type": "uint256"
            },
            {
              "internalType": "uint256",
              "name": "createdAt",
              "type": "uint256"
            }
          ],
          "internalType": "struct AgriChainFinance.LoanRequest",
          "name": "",
          "type": "tuple"
        }
      ],
      "stateMutability": "view",
      "type": "function"
    },
    {
      "inputs": [
        {
          "internalType": "uint256",
          "name": "_loanId",
          "type": "uint256"
        }
      ],
      "name": "getLoanInvestments",
      "outputs": [
        {
          "components": [
            {
              "internalType": "address",
              "name": "investor",
              "type": "address"
            },
            {
              "internalType": "uint256",
              "name": "loanId",
              "type": "uint256"
            },
            {
              "internalType": "uint256",
              "name": "amount",
              "type": "uint256"
            },
            {
              "internalType": "uint256",
              "name": "investedAt",
              "type": "uint256"
            },
            {
              "internalType": "bool",
              "name": "withdrawn",
              "type": "bool"
            }
          ],
          "internalType": "struct AgriChainFinance.Investment[]",
          "name": "",
          "type": "tuple[]"
        }
      ],
      "stateMutability": "view",
      "type": "function"
    },
    {
      "inputs": [
        {
          "internalType": "address",
          "name": "farmer",
          "type": "address"
        }
      ],
      "name": "getMaxLoanAmount",
      "outputs": [
        {
          "internalType": "uint256",
          "name": "",
          "type": "uint256"
        }
      ],
      "stateMutability": "view",
      "type": "function"
    },
    {
      "inputs": [
        {
          "internalType": "address",
          "name": "farmer",
          "type": "address"
        }
      ],
      "name": "getVerificationLevel",
      "outputs": [
        {
          "internalType": "uint8",
          "name": "",
          "type": "uint8"
        }
      ],
      "stateMutability": "view",
      "type": "function"
    },
    {
      "inputs": [],
      "name": "harvestNFTContract",
      "outputs": [
        {
          "internalType": "contract IHarvestTokenNFT",
          "name": "",
          "type": "address"
        }
      ],
      "stateMutability": "view",
      "type": "function"
    },
    {
      "inputs": [],
      "name": "harvestTokenCounter",
      "outputs": [
        {
          "internalType": "uint256",
          "name": "",
          "type": "uint256"
        }
      ],
      "stateMutability": "view",
      "type": "function"
    },
    {
      "inputs": [
        {
          "internalType": "uint256",
          "name": "",
          "type": "uint256"
        }
      ],
      "name": "harvestTokens",
      "outputs": [
        {
          "internalType": "address",
          "name": "tokenAddress",
          "type": "address"
        },
        {
          "internalType": "string",
          "name": "cropType",
          "type": "string"
        },
        {
          "internalType": "uint256",
          "name": "expectedYield",
          "type": "uint256"
        },
        {
          "internalType": "uint256",
          "name": "estimatedValue",
          "type": "uint256"
        },
        {
          "internalType": "uint256",
          "name": "harvestDate",
          "type": "uint256"
        },
        {
          "internalType": "address",
          "name": "farmer",
          "type": "address"
        },
        {
          "internalType": "bool",
          "name": "isActive",
          "type": "bool"
        },
        {
          "internalType": "bool",
          "name": "isHTSNFT",
          "type": "bool"
        },
        {
          "internalType": "uint256",
          "name": "htsInternalId",
          "type": "uint256"
        }
      ],
      "stateMutability": "view",
      "type": "function"
    },
    {
      "inputs": [
        {
          "internalType": "uint256",
          "name": "_loanId",
          "type": "uint256"
        }
      ],
      "name": "investInLoan",
      "outputs": [],
      "stateMutability": "payable",
      "type": "function"
    },
    {
      "inputs": [
        {
          "internalType": "address",
          "name": "",
          "type": "address"
        },
        {
          "internalType": "uint256",
          "name": "",
          "type": "uint256"
        }
      ],
      "name": "investorInvestments",
      "outputs": [
        {
          "internalType": "uint256",
          "name": "",
          "type": "uint256"
        }
      ],
      "stateMutability": "view",
      "type": "function"
    },
    {
      "inputs": [
        {
          "internalType": "uint8",
          "name": "",
          "type": "uint8"
        }
      ],
      "name": "levelMaxLoan",
      "outputs": [
        {
          "internalType": "uint256",
          "name": "",
          "type": "uint256"
        }
      ],
      "stateMutability": "view",
      "type": "function"
    },
    {
      "inputs": [
        {
          "internalType": "uint256",
          "name": "",
          "type": "uint256"
        },
        {
          "internalType": "uint256",
          "name": "",
          "type": "uint256"
        }
      ],
      "name": "loanInvestments",
      "outputs": [
        {
          "internalType": "address",
          "name": "investor",
          "type": "address"
        },
        {
          "internalType": "uint256",
          "name": "loanId",
          "type": "uint256"
        },
        {
          "internalType": "uint256",
          "name": "amount",
          "type": "uint256"
        },
        {
          "internalType": "uint256",
          "name": "investedAt",
          "type": "uint256"
        },
        {
          "internalType": "bool",
          "name": "withdrawn",
          "type": "bool"
        }
      ],
      "stateMutability": "view",
      "type": "function"
    },
    {
      "inputs": [],
      "name": "loanRequestCounter",
      "outputs": [
        {
          "internalType": "uint256",
          "name": "",
          "type": "uint256"
        }
      ],
      "stateMutability": "view",
      "type": "function"
    },
    {
      "inputs": [
        {
          "internalType": "uint256",
          "name": "",
          "type": "uint256"
        }
      ],
      "name": "loanRequests",
      "outputs": [
        {
          "internalType": "uint256",
          "name": "id",
          "type": "uint256"
        },
        {
          "internalType": "address",
          "name": "farmer",
          "type": "address"
        },
        {
          "internalType": "uint256",
          "name": "harvestTokenId",
          "type": "uint256"
        },
        {
          "internalType": "uint256",
          "name": "requestedAmount",
          "type": "uint256"
        },
        {
          "internalType": "uint256",
          "name": "interestRate",
          "type": "uint256"
        },
        {
          "internalType": "uint256",
          "name": "duration",
          "type": "uint256"
        },
        {
          "internalType": "uint256",
          "name": "collateralValue",
          "type": "uint256"
        },
        {
          "internalType": "enum AgriChainFinance.LoanStatus",
          "name": "status",
          "type": "uint8"
        },
        {
          "internalType": "uint256",
          "name": "fundedAmount",
          "type": "uint256"
        },
        {
          "internalType": "uint256",
          "name": "createdAt",
          "type": "uint256"
        }
      ],
      "stateMutability": "view",
      "type": "function"
    },
    {
      "inputs": [],
      "name": "owner",
      "outputs": [
        {
          "internalType": "address",
          "name": "",
          "type": "address"
        }
      ],
      "stateMutability": "view",
      "type": "function"
    },
    {
      "inputs": [],
      "name": "renounceOwnership",
      "outputs": [],
      "stateMutability": "nonpayable",
      "type": "function"
    },
    {
      "inputs": [
        {
          "internalType": "uint256",
          "name": "_loanId",
          "type": "uint256"
        }
      ],
      "name": "repayLoan",
      "outputs": [],
      "stateMutability": "payable",
      "type": "function"
    },
    {
      "inputs": [
        {
          "internalType": "uint256",
          "name": "_harvestTokenId",
          "type": "uint256"
        },
        {
          "internalType": "uint256",
          "name": "_requestedAmount",
          "type": "uint256"
        },
        {
          "internalType": "uint256",
          "name": "_interestRate",
          "type": "uint256"
        },
        {
          "internalType": "uint256",
          "name": "_duration",
          "type": "uint256"
        }
      ],
      "name": "requestLoan",
      "outputs": [
        {
          "internalType": "uint256",
          "name": "",
          "type": "uint256"
        }
      ],
      "stateMutability": "nonpayable",
      "type": "function"
    },
    {
      "inputs": [
        {
          "internalType": "address",
          "name": "_harvestNFTContract",
          "type": "address"
        }
      ],
      "name": "setHarvestNFTContract",
      "outputs": [],
      "stateMutability": "nonpayable",
      "type": "function"
    },
    {
      "inputs": [
        {
          "internalType": "address",
          "name": "farmer",
          "type": "address"
        },
        {
          "internalType": "uint8",
          "name": "level",
          "type": "uint8"
        },
        {
          "internalType": "bytes32",
          "name": "documentHash",
          "type": "bytes32"
        }
      ],
      "name": "setVerification",
      "outputs": [],
      "stateMutability": "nonpayable",
      "type": "function"
    },
    {
      "inputs": [],
      "name": "totalValueLocked",
      "outputs": [
        {
          "internalType": "uint256",
          "name": "",
          "type": "uint256"
        }
      ],
      "stateMutability": "view",
      "type": "function"
    },
    {
      "inputs": [
        {
          "internalType": "address",
          "name": "newOwner",
          "type": "address"
        }
      ],
      "name": "transferOwnership",
      "outputs": [],
      "stateMutability": "nonpayable",
      "type": "function"
    },
    {
      "inputs": [
        {
          "internalType": "uint256",
          "name": "_loanId",
          "type": "uint256"
        },
        {
          "internalType": "uint256",
          "name": "_investmentIndex",
          "type": "uint256"
        }
      ],
      "name": "withdrawInvestment",
      "outputs": [],
      "stateMutability": "nonpayable",
      "type": "function"
    }
  ],
  "bytecode": "0x60806040523480156200001157600080fd5b5060405162002ab738038062002ab7833981016040819052620000349162000267565b33806200005c57604051631e4fbdf760e01b8152600060048201526024015b60405180910390fd5b620000678162000217565b50600180556001600160a01b038116620000c45760405162461bcd60e51b815260206004820152601460248201527f496e76616c6964204e465420636f6e7472616374000000000000000000000000604482015260640162000053565b600280546001600160a01b0319166001600160a01b03928316178155686c6b935b8bbd4000007fa15bc60c955c405d20d9149c709e2460f1c2d9a497496a7f46004d1772c3054c5569010f0cf064dd592000007fc3a24b0501bd2c13a7e57f2db4369ec4c223447539fc0724a9d55ac4a06ebd4d5569043c33c19375648000007fcbc4e5fb02c3d1de23a9f1e014b4d2ee5aeaea9505df5e855c9210bf472495af556000197f83ec6a1f0257b830b5e016457c9cf1435391bf56cc98f369a58a54fe93772465556040805160a081018252600180825260006020808401828152428587019081523360608701818152608088018781529186526004909452969093209451855460ff191660ff909116178555519284019290925551938201939093559151600390920180549151929093166001600160a81b031990911617600160a01b9115159190910217905562000299565b600080546001600160a01b038381166001600160a01b0319831681178455604051919092169283917f8be0079c531659141344cd1fd0a4f28419497f9722a3daafe3b4186f6b6457e09190a35050565b6000602082840312156200027a57600080fd5b81516001600160a01b03811681146200029257600080fd5b9392505050565b61280e80620002a96000396000f3fe6080604052600436106101cd5760003560e01c8063753c7ff9116100f7578063bc31188b11610095578063ec18154e11610064578063ec18154e1461062b578063eef90b6214610641578063f2fde38b14610661578063fa9175411461068157600080fd5b8063bc31188b146104d4578063d1b332f4146104f4578063db2e21bc14610586578063e6658f9f1461059b57600080fd5b80639603c536116100d15780639603c53614610478578063ab7b1c891461048b578063ad73f38e1461049e578063b0f60a83146104be57600080fd5b8063753c7ff91461041a5780638d8faff91461043a5780638da5cb5b1461045a57600080fd5b8063458d18721161016f5780635bf1dd061161013e5780635bf1dd061461038b5780636186db28146103b857806366877b8d146103d8578063715018a61461040557600080fd5b8063458d1872146102e6578063475427d0146103065780634c431f001461032657806352c9d75e1461035357600080fd5b8063121664f8116101ab578063121664f81461024a5780631d879de61461025f57806320e215351461027f57806334a100ce146102b157600080fd5b806309b49c46146101d25780630b8d34d1146101f45780630dfc80e81461021d575b600080fd5b3480156101de57600080fd5b506101f26101ed366004611f4c565b6106d5565b005b34801561020057600080fd5b5061020a600b5481565b6040519081526020015b60405180910390f35b34801561022957600080fd5b5061020a610238366004611f84565b60036020526000908152604090205481565b34801561025657600080fd5b5061020a6109cb565b34801561026b57600080fd5b5061020a61027a366004611fbb565b6109e1565b34801561028b57600080fd5b5061029f61029a366004611fe7565b610a12565b60405160ff9091168152602001610214565b3480156102bd57600080fd5b506102d16102cc366004612004565b610a63565b6040516102149998979695949392919061206d565b3480156102f257600080fd5b5061020a610301366004612169565b610b52565b34801561031257600080fd5b5061020a610321366004612004565b610d06565b34801561033257600080fd5b50610346610341366004611fe7565b61102b565b6040516102149190612217565b34801561035f57600080fd5b50600254610373906001600160a01b031681565b6040516001600160a01b039091168152602001610214565b34801561039757600080fd5b506103ab6103a6366004612004565b611097565b604051610214919061225b565b3480156103c457600080fd5b506101f26103d33660046122d4565b611143565b3480156103e457600080fd5b506103f86103f3366004612004565b611231565b604051610214919061234a565b34801561041157600080fd5b506101f26112f0565b34801561042657600080fd5b5061020a6104353660046123d1565b611304565b34801561044657600080fd5b506101f2610455366004611fe7565b6116ba565b34801561046657600080fd5b506000546001600160a01b0316610373565b6101f2610486366004612004565b61172c565b6101f2610499366004612004565b611a20565b3480156104aa57600080fd5b5061020a6104b9366004611fe7565b611cb5565b3480156104ca57600080fd5b5061020a600a5481565b3480156104e057600080fd5b506103466104ef366004611fe7565b611cda565b34801561050057600080fd5b5061057061050f366004612004565b6006602081905260009182526040909120805460018201546002830154600384015460048501546005860154968601546007870154600888015460099098015496986001600160a01b03909616979496939592949293919260ff909116918a565b6040516102149a99989796959493929190612403565b34801561059257600080fd5b506101f2611d44565b3480156105a757600080fd5b506105f46105b6366004611fe7565b600460205260009081526040902080546001820154600283015460039093015460ff9283169391926001600160a01b03821691600160a01b90041685565b6040805160ff90961686526020860194909452928401919091526001600160a01b031660608301521515608082015260a001610214565b34801561063757600080fd5b5061020a600c5481565b34801561064d57600080fd5b5061020a61065c366004611fbb565b611d86565b34801561066d57600080fd5b506101f261067c366004611fe7565b611da2565b34801561068d57600080fd5b506106a161069c366004611f4c565b611ddd565b604080516001600160a01b03909616865260208601949094529284019190915260608301521515608082015260a001610214565b6106dd611e38565b60008281526006602081815260408084208151610140810183528154815260018201546001600160a01b031693810193909352600281015491830191909152600380820154606084015260048201546080840152600582015460a08401529281015460c083015260078101549192909160e084019160ff9091169081111561076757610767612312565b600381111561077857610778612312565b815260088201546020820152600990910154604090910152905060028160e0015160038111156107aa576107aa612312565b146107ee5760405162461bcd60e51b815260206004820152600f60248201526e131bd85b881b9bdd081c995c185a59608a1b60448201526064015b60405180910390fd5b600083815260076020526040812080548490811061080e5761080e612464565b6000918252602090912060059091020180549091506001600160a01b031633146108715760405162461bcd60e51b81526020600482015260146024820152732737ba1034b73b32b9ba36b2b73a1037bbb732b960611b60448201526064016107e5565b600481015460ff16156108ba5760405162461bcd60e51b815260206004820152601160248201527020b63932b0b23c903bb4ba34323930bbb760791b60448201526064016107e5565b6000612710836080015184606001516108d39190612490565b6108dd91906124ad565b905060008184606001516108f191906124cf565b9050600084610100015182856002015461090b9190612490565b61091591906124ad565b60048501805460ff191660011790556002850154600c805492935090916000906109409084906124e2565b909155503390506108fc6109596402540be400846124ad565b6040518115909202916000818181858888f19350505050158015610981573d6000803e3d6000fd5b50604051818152339088907f05ca455a01213f8fad66148acbe3cdab7e54cde2914c9ec51f091a748ae829ef9060200160405180910390a350505050506109c760018055565b5050565b60006109dc6402540be40047612490565b905090565b600860205281600052604060002081815481106109fd57600080fd5b90600052602060002001600091509150505481565b6001600160a01b038116600090815260046020526040812060030154600160a01b900460ff16610a4457506001919050565b506001600160a01b031660009081526004602052604090205460ff1690565b600560205260009081526040902080546001820180546001600160a01b039092169291610a8f906124f5565b80601f0160208091040260200160405190810160405280929190818152602001828054610abb906124f5565b8015610b085780601f10610add57610100808354040283529160200191610b08565b820191906000526020600020905b815481529060010190602001808311610aeb57829003601f168201915b50505060028401546003850154600486015460058701546006909701549596929591945092506001600160a01b0382169160ff600160a01b8204811692600160a81b909204169089565b6000428211610ba35760405162461bcd60e51b815260206004820152601e60248201527f486172766573742064617465206d75737420626520696e20667574757265000060448201526064016107e5565b600a805460009182610bb48361252f565b9091555060408051610120810182526001600160a01b038a8116825260208083018b81528385018b9052606084018a9052608084018990523360a0850152600160c08501819052600060e086018190526101008601819052878152600590935294909120835181546001600160a01b03191693169290921782555193945090929091820190610c439082612597565b506040828101516002830155606083015160038301556080830151600483015560a083015160058301805460c086015160e08701511515600160a81b0260ff60a81b19911515600160a01b026001600160a81b03199093166001600160a01b039095169490941791909117169190911790556101009092015160069091015551339082907ffb8e8ff0656e8ffdc3c914f134e13b4f02f99e1d00776d3633b9559188a3ba5790610cf4908a90612657565b60405180910390a39695505050505050565b6002546040516322b2e72b60e21b81526004810183905260009182916001600160a01b0390911690638acb9cac90602401600060405180830381865afa158015610d54573d6000803e3d6000fd5b505050506040513d6000823e601f3d908101601f19168201604052610d7c91908101906126d2565b60025460405163ac5d42cb60e01b8152600481018690523360248201529192506001600160a01b03169063ac5d42cb90604401602060405180830381865afa158015610dcc573d6000803e3d6000fd5b505050506040513d601f19601f82011682018060405250810190610df091906127bd565b610e2c5760405162461bcd60e51b815260206004820152600d60248201526c2737ba1027232a1037bbb732b960991b60448201526064016107e5565b806101000151610e6f5760405162461bcd60e51b815260206004820152600e60248201526d4e4654206e6f742061637469766560901b60448201526064016107e5565b42816060015111610ec25760405162461bcd60e51b815260206004820152601e60248201527f486172766573742064617465206d75737420626520696e20667574757265000060448201526064016107e5565b600a805460009182610ed38361252f565b90915550604080516101208101825260008082528551602080840191825280880151848601528785015160608086019190915288015160808501523360a0850152600160c0850181905260e0850181905261010085018b9052868452600590915293909120825181546001600160a01b0319166001600160a01b03909116178155905193945090929091820190610f6a9082612597565b506040828101516002830155606083015160038301556080830151600483015560a083015160058301805460c086015160e08701511515600160a81b0260ff60a81b19911515600160a01b026001600160a81b03199093166001600160a01b039095169490941791909117169190911790556101009092015160069091015582519051339183917ffb8e8ff0656e8ffdc3c914f134e13b4f02f99e1d00776d3633b9559188a3ba579161101c91612657565b60405180910390a39392505050565b6001600160a01b03811660009081526009602090815260409182902080548351818402810184019094528084526060939283018282801561108b57602002820191906000526020600020905b815481526020019060010190808311611077575b50505050509050919050565b606060076000838152602001908152602001600020805480602002602001604051908101604052809291908181526020016000905b828210156111385760008481526020908190206040805160a0810182526005860290920180546001600160a01b0316835260018082015484860152600282015492840192909252600381015460608401526004015460ff161515608083015290835290920191016110cc565b505050509050919050565b61114b611e62565b60018260ff1610158015611163575060048260ff1611155b61119f5760405162461bcd60e51b815260206004820152600d60248201526c125b9d985b1a59081b195d995b609a1b60448201526064016107e5565b6040805160a08101825260ff938416815260208082019384524282840190815233606084019081526001608085018181526001600160a01b03998a16600090815260049095529590932093518454971660ff199097169690961783559351908201559151600283015591516003909101805492511515600160a01b026001600160a81b03199093169190931617179055565b611239611edf565b6000828152600660208181526040928390208351610140810185528154815260018201546001600160a01b031692810192909252600281015493820193909352600380840154606083015260048401546080830152600584015460a08301529183015460c0820152600783015490929160e084019160ff16908111156112c1576112c1612312565b60038111156112d2576112d2612312565b81526008820154602082015260099091015460409091015292915050565b6112f8611e62565b6113026000611e8f565b565b6000848152600560208190526040822090810154600160a01b900460ff1661136e5760405162461bcd60e51b815260206004820152601860248201527f4861727665737420746f6b656e206e6f7420616374697665000000000000000060448201526064016107e5565b60058101546001600160a01b031633146113bc5760405162461bcd60e51b815260206004820152600f60248201526e2737ba103a37b5b2b71037bbb732b960891b60448201526064016107e5565b6064816003015460466113cf9190612490565b6113d991906124ad565b8511156114285760405162461bcd60e51b815260206004820152601d60248201527f416d6f756e7420657863656564732037302520636f6c6c61746572616c00000060448201526064016107e5565b600061143333611cb5565b9050808611156114955760405162461bcd60e51b815260206004820152602760248201527f416d6f756e74206578636565647320766572696669636174696f6e206c6576656044820152661b081b1a5b5a5d60ca1b60648201526084016107e5565b6005820154600160a81b900460ff161561151357600254600683015460405163f457d97f60e01b81526001600160a01b039092169163f457d97f916114e09160040190815260200190565b600060405180830381600087803b1580156114fa57600080fd5b505af115801561150e573d6000803e3d6000fd5b505050505b600b8054600091826115248361252f565b919050559050604051806101400160405280828152602001336001600160a01b03168152602001898152602001888152602001878152602001868152602001846003015481526020016000600381111561158057611580612312565b81526020016000815260200142815250600660008381526020019081526020016000206000820151816000015560208201518160010160006101000a8154816001600160a01b0302191690836001600160a01b0316021790555060408201518160020155606082015181600301556080820151816004015560a0820151816005015560c0820151816006015560e08201518160070160006101000a81548160ff0219169083600381111561163657611636612312565b0217905550610100820151600882810191909155610120909201516009909101553360008181526020928352604080822080546001810182559083529184902090910184905551898152909183917f97e04be2fd6414727fe9d0400464568f4384aa8b06264119565ca8f6cc2a4b7a910160405180910390a3979650505050505050565b6116c2611e62565b6001600160a01b03811661170a5760405162461bcd60e51b815260206004820152600f60248201526e496e76616c6964206164647265737360881b60448201526064016107e5565b600280546001600160a01b0319166001600160a01b0392909216919091179055565b611734611e38565b600081815260066020526040812090600782015460ff16600381111561175c5761175c612312565b1461179e5760405162461bcd60e51b81526020600482015260126024820152714c6f616e206e6f7420617661696c61626c6560701b60448201526064016107e5565b600034116117ee5760405162461bcd60e51b815260206004820152601d60248201527f496e766573746d656e7420616d6f756e74206d757374206265203e203000000060448201526064016107e5565b60006117ff6402540be40034612490565b905060008260080154836003015461181791906124e2565b90506000818311611828578261182a565b815b90508084600801600082825461184091906124cf565b9250508190555080600c600082825461185991906124cf565b90915550506000858152600760209081526040808320815160a081018352338082528185018b8152828501888152426060850190815260808501898152865460018082018955978b52898b209651600590910290960180546001600160a01b0319166001600160a01b03909716969096178655925185870155905160028501555160038085019190915590516004909301805460ff19169315159390931790925585526009845291842080549182018155845291909220018690558401546008850154106119855760078401805460ff1916600190811790915584015460038501546001600160a01b03909116906108fc9061195b906402540be400906124ad565b6040518115909202916000818181858888f19350505050158015611983573d6000803e3d6000fd5b505b808311156119d957600061199982856124e2565b9050336108fc6119ae6402540be400846124ad565b6040518115909202916000818181858888f193505050501580156119d6573d6000803e3d6000fd5b50505b604051818152339086907fbd7ef6c6281278f6c8ac4ae9ef2f205b52425813c288dd47c377cb6b59c5076e9060200160405180910390a350505050611a1d60018055565b50565b611a28611e38565b600081815260066020526040902060018101546001600160a01b03163314611a835760405162461bcd60e51b815260206004820152600e60248201526d2737ba103637b0b71037bbb732b960911b60448201526064016107e5565b6001600782015460ff166003811115611a9e57611a9e612312565b14611add5760405162461bcd60e51b815260206004820152600f60248201526e131bd85b881b9bdd08199d5b991959608a1b60448201526064016107e5565b6000611aee6402540be40034612490565b9050600061271083600401548460030154611b099190612490565b611b1391906124ad565b90506000818460030154611b2791906124cf565b905080831015611b795760405162461bcd60e51b815260206004820152601d60248201527f496e73756666696369656e742072657061796d656e7420616d6f756e7400000060448201526064016107e5565b60078401805460ff1916600290811790915584015460009081526005602081905260409091209081015460ff600160a81b9091041615611c1d576002546006820154604051634cd453c960e11b81526001600160a01b03909216916399a8a79291611bea9160040190815260200190565b600060405180830381600087803b158015611c0457600080fd5b505af1158015611c18573d6000803e3d6000fd5b505050505b857f040cee90ee4799897c30ca04e5feb6fa43dbba9b6d084b4b257cdafd84ba013e83604051611c4f91815260200190565b60405180910390a281841115611ca757336108fc6402540be400611c7385886124e2565b611c7d91906124ad565b6040518115909202916000818181858888f19350505050158015611ca5573d6000803e3d6000fd5b505b5050505050611a1d60018055565b600080611cc183610a12565b60ff166000908152600360205260409020549392505050565b6001600160a01b03811660009081526008602090815260409182902080548351818402810184019094528084526060939283018282801561108b57602002820191906000526020600020908154815260200190600101908083116110775750505050509050919050565b611d4c611e62565b600080546040516001600160a01b03909116914780156108fc02929091818181858888f19350505050158015611a1d573d6000803e3d6000fd5b600960205281600052604060002081815481106109fd57600080fd5b611daa611e62565b6001600160a01b038116611dd457604051631e4fbdf760e01b8152600060048201526024016107e5565b611a1d81611e8f565b60076020528160005260406000208181548110611df957600080fd5b6000918252602090912060059091020180546001820154600283015460038401546004909401546001600160a01b039093169550909350919060ff1685565b600260015403611e5b57604051633ee5aeb560e01b815260040160405180910390fd5b6002600155565b6000546001600160a01b031633146113025760405163118cdaa760e01b81523360048201526024016107e5565b600080546001600160a01b038381166001600160a01b0319831681178455604051919092169283917f8be0079c531659141344cd1fd0a4f28419497f9722a3daafe3b4186f6b6457e09190a35050565b6040518061014001604052806000815260200160006001600160a01b03168152602001600081526020016000815260200160008152602001600081526020016000815260200160006003811115611f3857611f38612312565b815260200160008152602001600081525090565b60008060408385031215611f5f57600080fd5b50508035926020909101359150565b803560ff81168114611f7f57600080fd5b919050565b600060208284031215611f9657600080fd5b611f9f82611f6e565b9392505050565b6001600160a01b0381168114611a1d57600080fd5b60008060408385031215611fce57600080fd5b8235611fd981611fa6565b946020939093013593505050565b600060208284031215611ff957600080fd5b8135611f9f81611fa6565b60006020828403121561201657600080fd5b5035919050565b60005b83811015612038578181015183820152602001612020565b50506000910152565b6000815180845261205981602086016020860161201d565b601f01601f19169290920160200192915050565b6001600160a01b038a81168252610120602083018190526000916120938483018d612041565b604085019b909b526060840199909952505060808101959095529290941660a0840152151560c083015291151560e0820152610100015292915050565b634e487b7160e01b600052604160045260246000fd5b604051610120810167ffffffffffffffff8111828210171561210a5761210a6120d0565b60405290565b604051601f8201601f1916810167ffffffffffffffff81118282101715612139576121396120d0565b604052919050565b600067ffffffffffffffff82111561215b5761215b6120d0565b50601f01601f191660200190565b600080600080600060a0868803121561218157600080fd5b853561218c81611fa6565b9450602086013567ffffffffffffffff8111156121a857600080fd5b8601601f810188136121b957600080fd5b80356121cc6121c782612141565b612110565b8181528960208385010111156121e157600080fd5b81602084016020830137600091810160200191909152959895975050505060408401359360608101359360809091013592509050565b6020808252825182820181905260009190848201906040850190845b8181101561224f57835183529284019291840191600101612233565b50909695505050505050565b602080825282518282018190526000919060409081850190868401855b828110156122c757815180516001600160a01b03168552868101518786015285810151868601526060808201519086015260809081015115159085015260a09093019290850190600101612278565b5091979650505050505050565b6000806000606084860312156122e957600080fd5b83356122f481611fa6565b925061230260208501611f6e565b9150604084013590509250925092565b634e487b7160e01b600052602160045260246000fd5b6004811061234657634e487b7160e01b600052602160045260246000fd5b9052565b8151815260208083015161014083019161236e908401826001600160a01b03169052565b5060408301516040830152606083015160608301526080830151608083015260a083015160a083015260c083015160c083015260e08301516123b360e0840182612328565b50610100838101519083015261012092830151929091019190915290565b600080600080608085870312156123e757600080fd5b5050823594602084013594506040840135936060013592509050565b8a81526001600160a01b038a16602082015260408101899052606081018890526080810187905260a0810186905260c08101859052610140810161244a60e0830186612328565b610100820193909352610120015298975050505050505050565b634e487b7160e01b600052603260045260246000fd5b634e487b7160e01b600052601160045260246000fd5b80820281158282048414176124a7576124a761247a565b92915050565b6000826124ca57634e487b7160e01b600052601260045260246000fd5b500490565b808201808211156124a7576124a761247a565b818103818111156124a7576124a761247a565b600181811c9082168061250957607f821691505b60208210810361252957634e487b7160e01b600052602260045260246000fd5b50919050565b6000600182016125415761254161247a565b5060010190565b601f82111561259257600081815260208120601f850160051c8101602086101561256f5750805b601f850160051c820191505b8181101561258e5782815560010161257b565b5050505b505050565b815167ffffffffffffffff8111156125b1576125b16120d0565b6125c5816125bf84546124f5565b84612548565b602080601f8311600181146125fa57600084156125e25750858301515b600019600386901b1c1916600185901b17855561258e565b600085815260208120601f198616915b828110156126295788860151825594840194600190910190840161260a565b50858210156126475787850151600019600388901b60f8161c191681555b5050505050600190811b01905550565b602081526000611f9f6020830184612041565b600082601f83011261267b57600080fd5b81516126896121c782612141565b81815284602083860101111561269e57600080fd5b6126af82602083016020870161201d565b949350505050565b8051611f7f81611fa6565b80518015158114611f7f57600080fd5b6000602082840312156126e457600080fd5b815167ffffffffffffffff808211156126fc57600080fd5b90830190610120828603121561271157600080fd5b6127196120e6565b82518281111561272857600080fd5b6127348782860161266a565b82525060208301516020820152604083015160408201526060830151606082015260808301518281111561276757600080fd5b6127738782860161266a565b60808301525060a083015160a082015261278f60c084016126b7565b60c082015260e083015160e082015261010091506127ae8284016126c2565b91810191909152949350505050565b6000602082840312156127cf57600080fd5b611f9f826126c256fea2646970667358221220c9e24df7b40adc492362546b8effd86d7acbbbc22bada563d0aa92b465aa9a6464736f6c63430008140033",
  "linkReferences": {},
  "deployedLinkReferences": {}
}