{
  "_format": "hh-sol-artifact-1",
  "contractName": "HarvestTokenNFT",
  "sourceName": "contracts/HarvestTokenNFT.sol",
  "abi": [
    {
      "inputs": [],
      "stateMutability": "nonpayable",
      "type": "constructor"
    },
    {
      "inputs": [
        {
          "internalType": "address",
          "name": "owner",
          "type": "address"
        }
      ],
      "name": "OwnableInvalidOwner",
      "type": "error"
    },
    {
      "inputs": [
        {
          "internalType": "address",
          "name": "account",
          "type": "address"
        }
      ],
      "name": "OwnableUnauthorizedAccount",
      "type": "error"
    },
    {
      "anonymous": false,
      "inputs": [
        {
          "indexed": true,
          "internalType": "uint256",
          "name": "internalId",
          "type": "uint256"
        },
        {
          "indexed": true,
          "internalType": "address",
          "name": "tokenId",
          "type": "address"
        },
        {
          "indexed": false,
          "internalType": "uint256",
          "name": "serialNumber",
          "type": "uint256"
        },
        {
          "indexed": true,
          "internalType": "address",
          "name": "farmer",
          "type": "address"
        }
      ],
      "name": "HarvestNFTRegistered",
      "type": "event"
    },
    {
      "anonymous": false,
      "inputs": [
        {
          "indexed": true,
          "internalType": "uint256",
          "name": "internalId",
          "type": "uint256"
        }
      ],
      "name": "NFTDeactivated",
      "type": "event"
    },
    {
      "anonymous": false,
      "inputs": [
        {
          "indexed": true,
          "internalType": "uint256",
          "name": "internalId",
          "type": "uint256"
        }
      ],
      "name": "NFTReactivated",
      "type": "event"
    },
    {
      "anonymous": false,
      "inputs": [
        {
          "indexed": true,
          "internalType": "address",
          "name": "previousOwner",
          "type": "address"
        },
        {
          "indexed": true,
          "internalType": "address",
          "name": "newOwner",
          "type": "address"
        }
      ],
      "name": "OwnershipTransferred",
      "type": "event"
    },
    {
      "inputs": [
        {
          "internalType": "address",
          "name": "contractAddress",
          "type": "address"
        }
      ],
      "name": "authorizeContract",
      "outputs": [],
      "stateMutability": "nonpayable",
      "type": "function"
    },
    {
      "inputs": [
        {
          "internalType": "address",
          "name": "",
          "type": "address"
        }
      ],
      "name": "authorizedContracts",
      "outputs": [
        {
          "internalType": "bool",
          "name": "",
          "type": "bool"
        }
      ],
      "stateMutability": "view",
      "type": "function"
    },
    {
      "inputs": [
        {
          "internalType": "uint256",
          "name": "internalId",
          "type": "uint256"
        }
      ],
      "name": "deactivateNFT",
      "outputs": [],
      "stateMutability": "nonpayable",
      "type": "function"
    },
    {
      "inputs": [
        {
          "internalType": "address",
          "name": "farmer",
          "type": "address"
        }
      ],
      "name": "getFarmerNFTs",
      "outputs": [
        {
          "internalType": "uint256[]",
          "name": "",
          "type": "uint256[]"
        }
      ],
      "stateMutability": "view",
      "type": "function"
    },
    {
      "inputs": [
        {
          "internalType": "uint256",
          "name": "internalId",
          "type": "uint256"
        }
      ],
      "name": "getHTSDetails",
      "outputs": [
        {
          "internalType": "address",
          "name": "tokenId",
          "type": "address"
        },
        {
          "internalType": "uint256",
          "name": "serialNumber",
          "type": "uint256"
        }
      ],
      "stateMutability": "view",
      "type": "function"
    },
    {
      "inputs": [
        {
          "internalType": "uint256",
          "name": "internalId",
          "type": "uint256"
        }
      ],
      "name": "getHarvestNFT",
      "outputs": [
        {
          "components": [
            {
              "internalType": "string",
              "name": "cropType",
              "type": "string"
            },
            {
              "internalType": "uint256",
              "name": "expectedYield",
              "type": "uint256"
            },
            {
              "internalType": "uint256",
              "name": "estimatedValue",
              "type": "uint256"
            },
            {
              "internalType": "uint256",
              "name": "harvestDate",
              "type": "uint256"
            },
            {
              "internalType": "string",
              "name": "farmLocation",
              "type": "string"
            },
            {
              "internalType": "uint256",
              "name": "farmSize",
              "type": "uint256"
            },
            {
              "internalType": "address",
              "name": "farmer",
              "type": "address"
            },
            {
              "internalType": "uint256",
              "name": "createdAt",
              "type": "uint256"
            },
            {
              "internalType": "bool",
              "name": "isActive",
              "type": "bool"
            }
          ],
          "internalType": "struct IHarvestTokenNFT.HarvestMetadata",
          "name": "",
          "type": "tuple"
        }
      ],
      "stateMutability": "view",
      "type": "function"
    },
    {
      "inputs": [],
      "name": "getTotalNFTs",
      "outputs": [
        {
          "internalType": "uint256",
          "name": "",
          "type": "uint256"
        }
      ],
      "stateMutability": "view",
      "type": "function"
    },
    {
      "inputs": [
        {
          "internalType": "uint256",
          "name": "",
          "type": "uint256"
        }
      ],
      "name": "harvestNFTs",
      "outputs": [
        {
          "internalType": "string",
          "name": "cropType",
          "type": "string"
        },
        {
          "internalType": "uint256",
          "name": "expectedYield",
          "type": "uint256"
        },
        {
          "internalType": "uint256",
          "name": "estimatedValue",
          "type": "uint256"
        },
        {
          "internalType": "uint256",
          "name": "harvestDate",
          "type": "uint256"
        },
        {
          "internalType": "string",
          "name": "farmLocation",
          "type": "string"
        },
        {
          "internalType": "uint256",
          "name": "farmSize",
          "type": "uint256"
        },
        {
          "internalType": "address",
          "name": "farmer",
          "type": "address"
        },
        {
          "internalType": "uint256",
          "name": "createdAt",
          "type": "uint256"
        },
        {
          "internalType": "bool",
          "name": "isActive",
          "type": "bool"
        }
      ],
      "stateMutability": "view",
      "type": "function"
    },
    {
      "inputs": [
        {
          "internalType": "uint256",
          "name": "",
          "type": "uint256"
        }
      ],
      "name": "htsTokenIds",
      "outputs": [
        {
          "internalType": "address",
          "name": "",
          "type": "address"
        }
      ],
      "stateMutability": "view",
      "type": "function"
    },
    {
      "inputs": [
        {
          "internalType": "uint256",
          "name": "internalId",
          "type": "uint256"
        },
        {
          "internalType": "address",
          "name": "farmer",
          "type": "address"
        }
      ],
      "name": "isNFTOwner",
      "outputs": [
        {
          "internalType": "bool",
          "name": "",
          "type": "bool"
        }
      ],
      "stateMutability": "view",
      "type": "function"
    },
    {
      "inputs": [
        {
          "internalType": "address",
          "name": "tokenId",
          "type": "address"
        },
        {
          "internalType": "uint256",
          "name": "serialNumber",
          "type": "uint256"
        }
      ],
      "name": "lookupNFT",
      "outputs": [
        {
          "internalType": "uint256",
          "name": "",
          "type": "uint256"
        }
      ],
      "stateMutability": "view",
      "type": "function"
    },
    {
      "inputs": [],
      "name": "owner",
      "outputs": [
        {
          "internalType": "address",
          "name": "",
          "type": "address"
        }
      ],
      "stateMutability": "view",
      "type": "function"
    },
    {
      "inputs": [
        {
          "internalType": "uint256",
          "name": "internalId",
          "type": "uint256"
        }
      ],
      "name": "reactivateNFT",
      "outputs": [],
      "stateMutability": "nonpayable",
      "type": "function"
    },
    {
      "inputs": [
        {
          "internalType": "address",
          "name": "tokenId",
          "type": "address"
        },
        {
          "internalType": "uint256",
          "name": "serialNumber",
          "type": "uint256"
        },
        {
          "components": [
            {
              "internalType": "string",
              "name": "cropType",
              "type": "string"
            },
            {
              "internalType": "uint256",
              "name": "expectedYield",
              "type": "uint256"
            },
            {
              "internalType": "uint256",
              "name": "estimatedValue",
              "type": "uint256"
            },
            {
              "internalType": "uint256",
              "name": "harvestDate",
              "type": "uint256"
            },
            {
              "internalType": "string",
              "name": "farmLocation",
              "type": "string"
            },
            {
              "internalType": "uint256",
              "name": "farmSize",
              "type": "uint256"
            },
            {
              "internalType": "address",
              "name": "farmer",
              "type": "address"
            },
            {
              "internalType": "uint256",
              "name": "createdAt",
              "type": "uint256"
            },
            {
              "internalType": "bool",
              "name": "isActive",
              "type": "bool"
            }
          ],
          "internalType": "struct IHarvestTokenNFT.HarvestMetadata",
          "name": "metadata",
          "type": "tuple"
        }
      ],
      "name": "registerHarvestNFT",
      "outputs": [
        {
          "internalType": "uint256",
          "name": "",
          "type": "uint256"
        }
      ],
      "stateMutability": "nonpayable",
      "type": "function"
    },
    {
      "inputs": [],
      "name": "renounceOwnership",
      "outputs": [],
      "stateMutability": "nonpayable",
      "type": "function"
    },
    {
      "inputs": [
        {
          "internalType": "address",
          "name": "contractAddress",
          "type": "address"
        }
      ],
      "name": "revokeContract",
      "outputs": [],
      "stateMutability": "nonpayable",
      "type": "function"
    },
    {
      "inputs": [
        {
          "internalType": "uint256",
          "name": "",
          "type": "uint256"
        }
      ],
      "name": "serialNumbers",
      "outputs": [
        {
          "internalType": "uint256",
          "name": "",
          "type": "uint256"
        }
      ],
      "stateMutability": "view",
      "type": "function"
    },
    {
      "inputs": [
        {
          "internalType": "address",
          "name": "newOwner",
          "type": "address"
        }
      ],
      "name": "transferOwnership",
      "outputs": [],
      "stateMutability": "nonpayable",
      "type": "function"
    }
  ],
  "bytecode": "0x608060405234801561001057600080fd5b50338061003757604051631e4fbdf760e01b81526000600482015260240160405180910390fd5b6100408161004a565b506001805561009a565b600080546001600160a01b038381166001600160a01b0319831681178455604051919092169283917f8be0079c531659141344cd1fd0a4f28419497f9722a3daafe3b4186f6b6457e09190a35050565b6114f8806100a96000396000f3fe608060405234801561001057600080fd5b50600436106101165760003560e01c80639f0b7c4a116100a2578063d5b9221b11610071578063d5b9221b146102c2578063e9749e09146102e5578063f01fb6441461030e578063f2fde38b14610340578063f457d97f1461035357600080fd5b80639f0b7c4a14610206578063ac5d42cb14610226578063cc2e3ee114610249578063d07f1ffc1461025c57600080fd5b8063715018a6116100e9578063715018a61461018657806381fbd3291461018e5780638acb9cac146101ae5780638da5cb5b146101ce57806399a8a792146101f357600080fd5b806330bdb3511461011b5780633479b2f11461013657806364459f861461014957806367561d9314610171575b600080fd5b610123610366565b6040519081526020015b60405180910390f35b610123610144366004610fb8565b61037b565b61015c6101573660046110bd565b6106e9565b60405161012d9998979695949392919061111c565b61018461017f36600461118b565b61084d565b005b610184610879565b61012361019c3660046110bd565b60036020526000908152604090205481565b6101c16101bc3660046110bd565b61088d565b60405161012d91906111ad565b6000546001600160a01b03165b6040516001600160a01b03909116815260200161012d565b6101846102013660046110bd565b610aac565b61021961021436600461118b565b610bb6565b60405161012d9190611251565b610239610234366004611295565b610c22565b604051901515815260200161012d565b61018461025736600461118b565b610c78565b61012361026a3660046112c1565b6040516bffffffffffffffffffffffff19606084901b16602082015260348101829052600090819060540160408051808303601f19018152918152815160209283012060009081526006909252902054949350505050565b6102396102d036600461118b565b60076020526000908152604090205460ff1681565b6101db6102f33660046110bd565b6002602052600090815260409020546001600160a01b031681565b61032161031c3660046110bd565b610ca1565b604080516001600160a01b03909316835260208301919091520161012d565b61018461034e36600461118b565b610cfc565b6101846103613660046110bd565b610d3a565b6000600180546103769190611301565b905090565b600080546001600160a01b03163314806103a457503360009081526007602052604090205460ff165b6103c95760405162461bcd60e51b81526004016103c090611314565b60405180910390fd5b6001600160a01b0384166104125760405162461bcd60e51b815260206004820152601060248201526f125b9d985b1a59081d1bdad95b88125160821b60448201526064016103c0565b60c08201516001600160a01b031661045d5760405162461bcd60e51b815260206004820152600e60248201526d24b73b30b634b2103330b936b2b960911b60448201526064016103c0565b60008260400151116104a15760405162461bcd60e51b815260206004820152600d60248201526c496e76616c69642076616c756560981b60448201526064016103c0565b428260600151116104eb5760405162461bcd60e51b8152602060048201526014602482015273496e76616c69642068617276657374206461746560601b60448201526064016103c0565b6040516bffffffffffffffffffffffff19606086901b1660208201526034810184905260009060540160408051601f19818403018152918152815160209283012060008181526006909352912054909150156105825760405162461bcd60e51b815260206004820152601660248201527513919508185b1c9958591e481c9959da5cdd195c995960521b60448201526064016103c0565b60018054600091826105938361133c565b90915550600081815260026020908152604080832080546001600160a01b0319166001600160a01b038c1617905560038252808320899055600490915290208551919250859181906105e590826113de565b506020820151600182015560408201516002820155606082015160038201556080820151600482019061061890826113de565b5060a082015160058281019190915560c080840151600680850180546001600160a01b0319166001600160a01b0393841617905560e08601516007860155610100909501516008909401805460ff191694151594909417909355870180518316600090815260209283526040808220805460018101825590835284832001879055878252948352849020859055519251888152928216929189169184917f3b21fd2806eb3e024098c55ac9c27b3438f98869fd9588534e9509b5fc38b13a910160405180910390a495945050505050565b60046020526000908152604090208054819061070490611355565b80601f016020809104026020016040519081016040528092919081815260200182805461073090611355565b801561077d5780601f106107525761010080835404028352916020019161077d565b820191906000526020600020905b81548152906001019060200180831161076057829003601f168201915b5050505050908060010154908060020154908060030154908060040180546107a490611355565b80601f01602080910402602001604051908101604052809291908181526020018280546107d090611355565b801561081d5780601f106107f25761010080835404028352916020019161081d565b820191906000526020600020905b81548152906001019060200180831161080057829003601f168201915b50505050600583015460068401546007850154600890950154939491936001600160a01b03909116925060ff1689565b610855610e42565b6001600160a01b03166000908152600760205260409020805460ff19166001179055565b610881610e42565b61088b6000610e6f565b565b6108e760405180610120016040528060608152602001600081526020016000815260200160008152602001606081526020016000815260200160006001600160a01b03168152602001600081526020016000151581525090565b6000821180156108f8575060015482105b6109145760405162461bcd60e51b81526004016103c09061149e565b600082815260046020526040908190208151610120810190925280548290829061093d90611355565b80601f016020809104026020016040519081016040528092919081815260200182805461096990611355565b80156109b65780601f1061098b576101008083540402835291602001916109b6565b820191906000526020600020905b81548152906001019060200180831161099957829003601f168201915b505050505081526020016001820154815260200160028201548152602001600382015481526020016004820180546109ed90611355565b80601f0160208091040260200160405190810160405280929190818152602001828054610a1990611355565b8015610a665780601f10610a3b57610100808354040283529160200191610a66565b820191906000526020600020905b815481529060010190602001808311610a4957829003601f168201915b50505091835250506005820154602082015260068201546001600160a01b031660408201526007820154606082015260089091015460ff16151560809091015292915050565b6000546001600160a01b0316331480610ad457503360009081526007602052604090205460ff165b610af05760405162461bcd60e51b81526004016103c090611314565b600081118015610b01575060015481105b610b1d5760405162461bcd60e51b81526004016103c09061149e565b60008181526004602052604090206008015460ff1615610b705760405162461bcd60e51b815260206004820152600e60248201526d416c72656164792061637469766560901b60448201526064016103c0565b600081815260046020526040808220600801805460ff191660011790555182917f73f3690a26b4d2abbb3f5aadc0b53821b7425c109f63a0cfc4066ef6eccacec291a250565b6001600160a01b038116600090815260056020908152604091829020805483518184028101840190945280845260609392830182828015610c1657602002820191906000526020600020905b815481526020019060010190808311610c02575b50505050509050919050565b60008083118015610c34575060015483105b610c505760405162461bcd60e51b81526004016103c09061149e565b506000828152600460205260409020600601546001600160a01b038281169116145b92915050565b610c80610e42565b6001600160a01b03166000908152600760205260409020805460ff19169055565b600080600083118015610cb5575060015483105b610cd15760405162461bcd60e51b81526004016103c09061149e565b50506000908152600260209081526040808320546003909252909120546001600160a01b0390911691565b610d04610e42565b6001600160a01b038116610d2e57604051631e4fbdf760e01b8152600060048201526024016103c0565b610d3781610e6f565b50565b6000546001600160a01b0316331480610d6257503360009081526007602052604090205460ff165b610d7e5760405162461bcd60e51b81526004016103c090611314565b600081118015610d8f575060015481105b610dab5760405162461bcd60e51b81526004016103c09061149e565b60008181526004602052604090206008015460ff16610dff5760405162461bcd60e51b815260206004820152601060248201526f416c726561647920696e61637469766560801b60448201526064016103c0565b600081815260046020526040808220600801805460ff191690555182917f45298262a84443aa9ddcce2ac4ee5e25f8540fb1e86ce08fc55021832459690191a250565b6000546001600160a01b0316331461088b5760405163118cdaa760e01b81523360048201526024016103c0565b600080546001600160a01b038381166001600160a01b0319831681178455604051919092169283917f8be0079c531659141344cd1fd0a4f28419497f9722a3daafe3b4186f6b6457e09190a35050565b80356001600160a01b0381168114610ed657600080fd5b919050565b634e487b7160e01b600052604160045260246000fd5b604051610120810167ffffffffffffffff81118282101715610f1557610f15610edb565b60405290565b600082601f830112610f2c57600080fd5b813567ffffffffffffffff80821115610f4757610f47610edb565b604051601f8301601f19908116603f01168101908282118183101715610f6f57610f6f610edb565b81604052838152866020858801011115610f8857600080fd5b836020870160208301376000602085830101528094505050505092915050565b80358015158114610ed657600080fd5b600080600060608486031215610fcd57600080fd5b610fd684610ebf565b925060208401359150604084013567ffffffffffffffff80821115610ffa57600080fd5b90850190610120828803121561100f57600080fd5b611017610ef1565b82358281111561102657600080fd5b61103289828601610f1b565b82525060208301356020820152604083013560408201526060830135606082015260808301358281111561106557600080fd5b61107189828601610f1b565b60808301525060a083013560a082015261108d60c08401610ebf565b60c082015260e083013560e082015261010091506110ac828401610fa8565b828201528093505050509250925092565b6000602082840312156110cf57600080fd5b5035919050565b6000815180845260005b818110156110fc576020818501810151868301820152016110e0565b506000602082860101526020601f19601f83011685010191505092915050565b60006101208083526111308184018d6110d6565b90508a6020840152896040840152886060840152828103608084015261115681896110d6565b60a084019790975250506001600160a01b039390931660c084015260e083019190915215156101009091015295945050505050565b60006020828403121561119d57600080fd5b6111a682610ebf565b9392505050565b60208152600082516101208060208501526111cc6101408501836110d6565b91506020850151604085015260408501516060850152606085015160808501526080850151601f198584030160a086015261120783826110d6565b92505060a085015160c085015260c085015161122e60e08601826001600160a01b03169052565b5060e0850151610100858101919091529094015115159390920192909252919050565b6020808252825182820181905260009190848201906040850190845b818110156112895783518352928401929184019160010161126d565b50909695505050505050565b600080604083850312156112a857600080fd5b823591506112b860208401610ebf565b90509250929050565b600080604083850312156112d457600080fd5b6112dd83610ebf565b946020939093013593505050565b634e487b7160e01b600052601160045260246000fd5b81810381811115610c7257610c726112eb565b6020808252600e908201526d139bdd08185d5d1a1bdc9a5e995960921b604082015260600190565b60006001820161134e5761134e6112eb565b5060010190565b600181811c9082168061136957607f821691505b60208210810361138957634e487b7160e01b600052602260045260246000fd5b50919050565b601f8211156113d957600081815260208120601f850160051c810160208610156113b65750805b601f850160051c820191505b818110156113d5578281556001016113c2565b5050505b505050565b815167ffffffffffffffff8111156113f8576113f8610edb565b61140c816114068454611355565b8461138f565b602080601f83116001811461144157600084156114295750858301515b600019600386901b1c1916600185901b1785556113d5565b600085815260208120601f198616915b8281101561147057888601518255948401946001909101908401611451565b508582101561148e5787850151600019600388901b60f8161c191681555b5050505050600190811b01905550565b6020808252600a9082015269125b9d985b1a5908125160b21b60408201526060019056fea264697066735822122022f1ab9743ad609ebd15dd7d80ef4b11d4cdd4538d9723af511ea4483925e6ac64736f6c63430008140033",
  "linkReferences": {},
  "deployedLinkReferences": {}
}